:020000040000FA
:0600000015EF64F0120090
:0600080004EF50F01200AD
:060018000CEF50F0120095
:06A0000015EF64F01200F0
:02A00600120046
:06A00800C0EF57F012004A
:06A01800C7EF57F0120033
:02A01E0002003E
:10A0200046C80000E60000000F000000A7C40000C2
:08A030003C0E000001000000DD
:08A03800D9CFE6FFE1CFD9FF0B
:10A04000E652636A626A0F019F0E376FFB0E366F2E
:10A05000658C659C386B000EE66EE66AE66A270E34
:10A06000E66E0F0EE66EEBEC63F0006E050EE15E41
:10A070000050DF6ADF50006E016A080E005C000EBF
:10A08000015810E2DF50040DF3CFE9FFF4CFEAFFEF
:10A09000000EE926040EEA22EE6AEE6AEE6AEE6A25
:10A0A000DF2AE8D70F01160E266F62A60CD0030E2A
:10A0B000E66E620EE66E0F0EE66EA5EC57F0E55208
:10A0C000E552E552F2D70E01136B186B196B1A6B40
:10A0D0006598080E0B6F040E0C6F016B006BE55258
:10A0E000E552E7CFD9FF1200D9CFE6FFE1CFD9FF84
:10A0F000E6520E0100510DE1656A0F01366B65B63F
:10A1000002D06586FCD70E01010E006F0F01160EFE
:10A11000396F0E0100050AE165BA08D0626A0F01C5
:10A12000366B368136890E01020E006F6250040BC9
:10A1300005E00F013651040B01E0A6D865B26BD0E3
:10A140006250010B12E00F013651010B0EE074DF7B
:10A150000E01040E006F0401200E026F040E036F47
:10A16000080E016F006B8C0E00136250100B10E094
:10A170000F013651100B0CE077D8040EE66E620E1C
:10A18000E66E0F0EE66EA5EC57F0E552E552E5528D
:10A190006250400B11E00F013651400B0DE0DAEC3C
:10A1A0005AF0060EE66E620EE66E0F0EE66EA5EC37
:10A1B00057F0E552E552E5526250200B05E00F01E1
:10A1C0003651200B01E02CD86250020B07E00F0142
:10A1D0003651020B03E0DBEC5AF0636A040E0E0109
:10A1E000005D19E30F0136A716D0DF6A040EDF5CAD
:10A1F00012E262A610D064CF20FE030EE66E620E5D
:10A20000E66E0F0EE66EA5EC57F0E552E552E5520C
:10A210004FD8DF2AEBD7E552E552E7CFD9FF12003E
:10A220000F0126A115D003CEE9FF04CEEAFFEF50BF
:10A2300080080DE10BCEE9FF0CCEEAFFEF50840859
:10A2400006E103CEE9FF04CEEAFF8C0EEF6E269105
:10A25000050EE66E620EE66E0F0EE66EA5EC57F08A
:10A26000E552E552E55212000F013685040EE66E06
:10A27000620EE66E0F0EE66EA5EC57F0E552E55263
:10A28000E5526582C4EF5AF06592C6EC5AF00F01B0
:10A29000369562A40CD0020EE66E620EE66E0F0ECC
:10A2A000E66EA5EC57F0E552E552E552F2D7120002
:10A2B000FD0E0E01201520E17E0E2015E8407F0BDB
:10A2C000040DF3CF03FEF4CF04FE000E0327040EAB
:10A2D000042303CE05FE04CE06FE057503CEE9FF7A
:10A2E00004CEEAFFEF503C0BE842E8420D0802E1E1
:10A2F00082EF51F099EF51F0FD0E2015040801E1B5
:10A3000020D812000BCEE9FF0CCEEAFFEF50800BF5
:10A3100005E00BCEE9FF0CCEEAFFEF6A0E010F6BF2
:10A32000106B146B156B136BF6D8DCEC5AF014EF52
:10A3300054F0020E0E01105D02E16CEF55F0EEEFED
:10A3400051F0D9CFE6FFE1CFD9FFE6520BCEE9FFBE
:10A350000CCEEAFFEF50400B01E0010EDF6E0E0164
:10A360000B75080E005D0CE122C438FF0F01385157
:10A37000000803E20E01100E02D00E01040E006F61
:10A38000100526E10BCEE9FF0CCEEAFF020EE9260E
:10A39000000EEA22280EEE6E040EED6E14DB020EA5
:10A3A0000E010F5D06E10BCEE9FF0CCEEAFF840E35
:10A3B0000DD0DF5006E10BCEE9FF0CCEEAFFC80E50
:10A3C00005D00BCEE9FF0CCEEAFF880EEF6E01D070
:10A3D00005D8E552E552E7CFD9FF1200D9CFE6FF05
:10A3E000E1CFD9FF030EE126020E0E01105D49E117
:10A3F0006550100B46E003CEE9FF04CEEAFFEE52B3
:10A40000EF50006E016A080E00183BE1015039E17F
:10A4100003CEE9FF04CEEAFFEF503C0BE842E842EE
:10A420000D082FE105CEE9FF06CEEAFFEF50800BC5
:10A4300028E105CEE9FF06CEEAFF020EE926000E6E
:10A44000EA22200EEE6E040EED6EDF6ADF50006E23
:10A45000016A080E005C000E015844E2DF50EA6A0F
:10A46000280FE96E040EEA22EF50E66EDF50EA6A2A
:10A47000200FE96E040EEA22E552E750EF6EDF2A64
:10A48000E5D7106B05CEE9FF06CEEAFFEE52080EC7
:10A49000EF6E05CEE9FF06CEEAFF020EE926000EBA
:10A4A000EA22200EEE6E040EED6E05CEE9FF06CE1A
:10A4B000EAFF8C0EEF6E0BCEE9FF0CCEEAFFEF6ADF
:10A4C000040E0B19006E0CCE01F0010E00C0DBFF74
:10A4D000020E0CCEDBFF010EDBCFE9FF020EDBCF5D
:10A4E000EAFFEF6A0E0118AF0CD01B511C1107E0F8
:10A4F00005D01CCEFAFF0E011B51F96EFADF0E01DA
:10A50000189F030EE15C02E2E16AE552E16EE5525A
:10A51000E7CFD9FF120004012051600BE842E84266
:10A52000E842E842E842000901E0120021510C0A29
:10A5300043E00B0A3FE00C0A31E0010A22E00B0A7B
:10A540001EE0020A1CE0030A18E0080A10E0010AF3
:10A550000CE00F0A08E0030A01E012000E01138F5D
:10A56000080E006F120063EF53F0FCEF55F00E0180
:10A57000010E116F0E0E126F0CD0BAEF53F0DDEF1B
:10A5800052F024510E01116F126B020E11270E0EA4
:10A5900012231381010E146F138F12000E01138FFB
:10A5A00004012451EA6A020FE96E0E0EEA2222C467
:10A5B000EFFF1200DEEF5AF01200D9CFE6FFE1CF35
:10A5C000D9FF040EE1260401220510E120511F0BE2
:10A5D00000090CE10E01138F030E0401215D04E15B
:10A5E0000E01010E1F6F02D00E011F6B04012251DC
:10A5F00060E120511F0B02085CE124510F0B0009A0
:10A6000058E00E01138F040124BF0BD024510F0B0F
:10A61000E96EEA6AD890E936EA36070EE9260E0EA8
:10A620000AD024510F0BE96EEA6AD890E936EA366F
:10A630000B0EE9260E0EEA22EECFDEFFEDCFDDFF98
:10A64000030E215D06E1DECFE9FFDDCFEAFF840ED8
:10A650002FD024510F0B016A260F006E0F0E01221E
:10A66000020E00C0DBFF030E01C0DBFF020EDBCFDA
:10A67000E9FF030EDBCFEAFFEE90ED5224AF0CD0E2
:10A68000DECFE9FFDDCFEAFFEF6ADF74DECFE9FF5F
:10A69000DDCFEAFF400E0CD0DECFE9FFDDCFEAFFD1
:10A6A000880EEF6EDF74DECFE9FFDDCFEAFFC80E64
:10A6B000EF6E040EE15C02E2E16AE552E16EE55202
:10A6C000E7CFD9FF1200800E0401205D52E10E0198
:10A6D000C00E136F04012351030A29E0010A09E0A7
:10A6E000030A45E10E01720E116FC60E126F120EB3
:10A6F00038D02251F66EF76AD890F636F736300E1B
:10A70000F626C70EF7220900F5CF11FE0A00F5CF95
:10A7100012FE020E0E01F76A1125F66E1251F72293
:10A720000900F5CF14FE0A00F5CF15FE1200030E46
:10A73000225D1AE22251F66EF76AD890F636F736A5
:10A74000320EF626C70EF7220900F5CF11FE0A00D9
:10A75000F5CF12FE11CEF6FF12CEF7FF0800F5502E
:10A760000E01146F156B12000E01136B12000E0117
:10A77000136B1200D9CFE6FFE1CFD9FF020EE1261D
:10A780000401286B296B20511F0B020A11E0030AF8
:10A790000CE0010A35E10E01138F040128810E013E
:10A7A0001F052EE1040128832BD00E01138F28D022
:10A7B0000E01138F040124BF0BD024510F0BE96E3F
:10A7C000EA6AD890E936EA36070EE9260E0E0AD074
:10A7D00024510F0BE96EEA6AD890E936EA360B0E7F
:10A7E000E9260E0EEA22EECFDEFFEDCFDDFFDECF53
:10A7F000E9FFDDCFEAFFEF50040B02E0010E286F06
:10A800000E0113AF07D0280E116F040E126F1381C3
:10A81000020E146F020EE15C02E2E16AE552E16EA3
:10A82000E552E7CFD9FF120065980E0113BF47D05C
:10A8300018AF26D0020E106F0BCEE9FF0CCEEAFF48
:10A84000EE52EF6A0BCEE9FF0CCEEAFFC80EEF6EB8
:10A8500005CEE9FF06CEEAFFEE52080EEF6E05CEFA
:10A86000E9FF06CEEAFF020EE926000EEA22280ED4
:10A87000EE6E040EED6E05CEE9FF06CEEAFF77D050
:10A8800005CEE9FF06CEEAFFEE52080EEF6E05CECA
:10A89000E9FF06CEEAFF020EE926000EEA22200EAC
:10A8A000EE6E040EED6E05CEE9FF06CEEAFF8C0ECD
:10A8B000EF6E0BCEE9FF0CCEEAFF840E59D018BF25
:10A8C00081D0040120AF56D00E0114510401265D41
:10A8D0000E0115510401275904E226C414FE27C4B1
:10A8E00015FE71D80E01010E106F05CEE9FF06CEE0
:10A8F000EAFFEE52080EEF6E05CEE9FF06CEEAFF44
:10A90000020EE926000EEA22200EEE6E040EED6E17
:10A9100005CEE9FF06CEEAFF800EEF6E03CEE9FF1B
:10A9200004CEEAFFEE52080EEF6E03CEE9FF04CE2E
:10A93000EAFF020EE926000EEA22200EEE6E040E59
:10A94000ED6E03CEE9FF04CEEAFF800EEF6E0BCE74
:10A95000E9FF0CCEEAFF020EE926000EEA22280EDD
:10A96000EE6E040EED6E0BCEE9FF0CCEEAFFC80EC4
:10A97000EF6E12000E01020E106F0BCEE9FF0CCE2F
:10A98000EAFFEE52EF6A0BCEE9FF0CCEEAFFC80EEB
:10A99000EF6E05CEE9FF06CEEAFFEE52080EEF6E2F
:10A9A00005CEE9FF06CEEAFF020EE926000EEA22F6
:10A9B000280EEE6E040EED6E05CEE9FF06CEEAFF20
:10A9C000C80EEF6E1200D9CFE6FFE1CFD9FF020E1D
:10A9D000E1260E01080E145D000E15590DE214CE8D
:10A9E000DEFF15CEDDFF0F5102E1010E03D00F0592
:10A9F00006E1020E0F6F03D0080EDE6EDD6A0BCE8D
:10AA0000E9FF0CCEEAFFEF920BCEE9FF0CCEEAFF96
:10AA1000EF900BCEE9FF0CCEEAFF010EDB50EF12F8
:10AA20000BCEE9FF0CCEEAFFEE52DFCFEFFF000EB8
:10AA3000DB50145F010EDB50155B280E1D6F040EFA
:10AA40001E6F13B120D0D9CFE9FFDACFEAFFEE5065
:10AA5000ED1038E011CEF6FF12CEF7FF112B000EED
:10AA600012230800F550E66E1DCEE9FF1ECEEAFF68
:10AA70001D2B000E1E23E552E750EF6EDF06010E80
:10AA8000E2E2DB06E0D7D9CFE9FFDACFEAFFEE500A
:10AA9000ED1018E011CEE9FF12CEEAFF112B000EE7
:10AAA0001223EF50E66E1DCEE9FF1ECEEAFF1D2BEE
:10AAB000000E1E23E552E750EF6EDF06010EE3E2C3
:10AAC000DB06E1D7020EE15C02E2E16AE552E16EEB
:10AAD000E552E7CFD9FF1200D9CFE6FFE1CFD9FF8A
:10AAE000020EE12603CEE9FF04CEEAFFEE52EFCFDD
:10AAF000DFFFDFCF00F000500E01195D000E1A5984
:10AB000003E219CEDFFF09D0DF50006E016AE85082
:10AB1000195D196F01501A591A6F010EDB6ADF5067
:10AB2000F36E010EDBCFF4FFF350F45C16E2010E7E
:10AB3000DB50EA6A280FE96E040EEA22EF50E66E57
:10AB400016CEE9FF17CEEAFF162B000E1723E552AB
:10AB5000E750EF6E010EDB2AE2D7000ED8801955C0
:10AB6000000E1A5527E205CEE9FF06CEEAFFEE52A7
:10AB7000080EEF6E05CEE9FF06CEEAFF020EE926CB
:10AB8000000EEA22280EEE6E040EED6E03CEE9FFF3
:10AB900004CEEAFFEF50400B06E105CEE9FF06CEFA
:10ABA000EAFFC80E05D005CEE9FF06CEEAFF880E03
:10ABB000EF6E18D005CEE9FF06CEEAFF020EE926B9
:10ABC000000EEA22200EEE6E040EED6E1B511C11DB
:10ABD00007E005D01CCEFAFF0E011B51F96EFADF1B
:10ABE0000E01189F020EE15C02E2E16AE552E16E9D
:10ABF000E552E7CFD9FF12000E01138F000EE66E6B
:10AC0000E66AE66A270EE66E0F0EE66EEBEC63F080
:10AC1000006E050EE15E0050010EE66EE66AE66A21
:10AC2000020EE66E0E0EE66EEBEC63F0006E050EA5
:10AC3000E15E005022C401FE0401225104E10E0134
:10AC4000100E006F12000E01200E006FDFEF5AF0A1
:10AC5000D9CFE6FFE1CFD9FF020EE126000EDE6E6E
:10AC6000040EDD6EFD0EDB50E824026EFE0EDB509E
:10AC7000040DF3500224040DF350006E016A020E1D
:10AC80000F0B05E0D89001320032E806FBE1D890C6
:10AC900000360136D89000360136D9CFE9FFDACF39
:10ACA000EAFF0050EE260150ED22DECFE9FFDDCFB6
:10ACB000EAFFEF9EFD0EDB500AE1FE0EEA6ADB348E
:10ACC000FE0BEA36E96E070EE9260E0E09D0FE0EDF
:10ACD000EA6ADB34FE0BEA36E96E0B0EE9260E0E4D
:10ACE000EA22DECFEEFFDDCFEDFFDECFE9FFDDCFE5
:10ACF000EAFFEF9CDECFE9FFDDCFEAFF040EE92695
:10AD0000000EEA22EF8C020EE15C02E2E16AE552FB
:10AD1000E16EE552E7CFD9FF1200D9CFE6FFE1CFD0
:10AD2000D9FF020EE126FE0EDB50016A260F006EEF
:10AD30000F0E012200C0DEFF01C0DDFFFD0EDB5063
:10AD4000E66EDECFE9FFDDCFEAFFE552E750EE6EBB
:10AD5000ED6AFD0EDBA407D0E66AFE0EDBCFE6FF50
:10AD600077DFE552E552FD0EDBA208D0010EE66E5C
:10AD7000FE0EDBCFE6FF6CDFE552E552020EE15C32
:10AD800002E2E16AE552E16EE552E7CFD9FF120037
:10AD9000D9CFE6FFE1CFD9FF020EE126FE0EDB5050
:10ADA00020E105CEE9FF06CEEAFFEE52080EEF6E77
:10ADB00005CEE9FF06CEEAFF020EE926000EEA22E2
:10ADC000200EEE6E040EED6E05CEE9FF06CEEAFF14
:10ADD0008C0EEF6E0BCEE9FF0CCEEAFF840EEF6E09
:10ADE0003BD0FD0EDB50E824026EFE0EDB50040D5E
:10ADF000F3500224040DF3CF00F0F4CF01F0000E65
:10AE00000026040E012200C0DEFF01C0DDFF840E1B
:10AE1000DECFE9FFDDCFEAFFE850EF12FD0EDB5099
:10AE2000E824026EFE0EDB50040DF3500224010FE5
:10AE3000040DF3CF00F0F4CF01F0000E0026040E55
:10AE4000012200C0DEFF01C0DDFF840EDECFE9FF7E
:10AE5000DDCFEAFFE850EF12020EE15C02E2E16AA8
:10AE6000E552E16EE552E7CFD9FF1200D9CFE6FFF8
:10AE7000E1CFD9FF020EE126FD0EDB500AE0FE0E07
:10AE8000EA6ADB34FE0BEA36E96E0B0EE9260E0E9B
:10AE900009D0FE0EEA6ADB34FE0BEA36E96E070ED5
:10AEA000E9260E0EEA22EECFDEFFEDCFDDFFDECF8C
:10AEB000E9FFDDCFEAFF020EE926000EEA22FB0ED3
:10AEC000DBCFEEFFFC0EDBCFEDFFDECFE9FFDDCF0A
:10AED000EAFFEE52FA0EDBCFEFFF400EDECFE9FFC6
:10AEE000DDCFEAFFE850EF16880EDECFE9FFDDCFB9
:10AEF000EAFFE850EF12FD0EDB500AE0FE0EEA6AB0
:10AF0000DB34FE0BEA36E96E0B0EE9260E0E09D095
:10AF1000FE0EEA6ADB34FE0BEA36E96E070EE9261E
:10AF20000E0EEA22EF74DECF00F0DDCF01F000C09C
:10AF3000F3FF01C0F4FF020EE15C02E2E16AE552B8
:10AF4000E16EE552E7CFD9FF1200D9CFE6FFE1CF9E
:10AF5000D9FF010EF36EFC0EDB5004E0D890F336FF
:10AF6000E806FCE1F31C006EFD0EDBCFE9FFFE0EF0
:10AF7000DBCFEAFF0050EF16E552E7CFD9FF120012
:10AF8000DACFE4FFE652E552E5CFDAFF1100D8CF81
:10AF9000E4FFE0CFE4FFE46EDACFE4FFE652E552EF
:10AFA000E5CFDAFFE550E5CFE0FFE5CFD8FF1000B1
:10AFB00013DA65DB74EC50F043DAFCD70001EB5197
:10AFC000080A01E174D10F0A01E16BD1010A01E124
:10AFD0000DD1030A01E105D1010A01E1A4D0070A5C
:10AFE00001E19CD0010A39E0030A32E0010A01E0E4
:10AFF000120081EC5BF0E66A66EC5CF0E552E66A12
:10B00000E66A910EE66EC40EE66E59EC5DF0E5520E
:10B01000E552E552E552E66A010EE66E7B0EE66EFB
:10B02000C40EE66E59EC5DF0E552E552E552E5528C
:10B03000E66A060EE66E650EE66EC40EE66E59EC26
:10B040005DF0E552E552E552E5520001010EC7D030
:10B050008CD9010801E088D127D1E66A66EC5CF062
:10B06000E552E66AE66A4F0EE66EC40EE66E59ECED
:10B070005DF0E552E552E552E552E66A010EE66EF4
:10B08000390EE66EC40EE66E59EC5DF0E552E552FF
:10B09000E552E552E66A020EE66E230EE66EC40E37
:10B0A000E66E59EC5DF0E552E552E552E552E66A8E
:10B0B000030EE66E0D0EE66EC40EE66E59EC5DF004
:10B0C000E552E552E552E552E66A040EE66EF70EE9
:10B0D000E66EC30EE66E59EC5DF0E552E552E552C0
:10B0E000E552E66A050EE66EF70EE66EC30EE66EF4
:10B0F00059EC5DF0E552E552E552E552E66A060E7E
:10B10000E66E650EE66EC40EE66E59EC5DF0E55235
:10B11000E552E552E5520001030E61D026D901083F
:10B1200001E022D1C1D0E66AE66AE10EE66EC30E06
:10B13000E66E59EC5DF0E552E552E552E552E66AFD
:10B14000010EE66ECB0EE66EC30EE66E59EC5DF0B8
:10B15000E552E552E552E552E66A020EE66EB50E9C
:10B16000E66EC30EE66E59EC5DF0E552E552E5522F
:10B17000E552E66A030EE66E9F0EE66EC30EE66EBD
:10B1800059EC5DF0E552E552E552E552E66A040EEF
:10B19000E66EF70EE66EC30EE66E59EC5DF0E55214
:10B1A000E552E552E552E66A050EE66EF70EE66EEA
:10B1B000C30EE66E59EC5DF0E552E552E552E552FC
:10B1C000E66A060EE66E650EE66EC40EE66E59EC95
:10B1D0005DF0E552E552E552E5520001050EEB6FD8
:10B1E0001200C3D8010801E0BFD05ED0E66AE66A6B
:10B1F000890EE66EC30EE66E59EC5DF0E552E5523F
:10B20000E552E552E66A010EE66E730EE66EC30E77
:10B21000E66E59EC5DF0E552E552E552E552E66A1C
:10B22000020EE66E5D0EE66EC30EE66E59EC5DF044
:10B23000E552E552E552E552E66A030EE66E470E28
:10B24000E66EC30EE66E59EC5DF0E552E552E5524E
:10B25000E552E66A040EE66E310EE66EC30EE66E49
:10B2600059EC5DF0E552E552E552E552E66A050E0D
:10B27000E66EF70EE66EC30EE66E59EC5DF0E55233
:10B28000E552E552E552E66A060EE66E650EE66E9A
:10B29000C40EE66E59EC5DF0E552E552E552E5521A
:10B2A00003D063D8010860E10001EB2B1200E66ACD
:10B2B000E66A1B0EE66EC30EE66E59EC5DF0E552D3
:10B2C000E552E552E552E66A010EE66E050EE66EBF
:10B2D000C30EE66E59EC5DF0E552E552E552E552DB
:10B2E000E66A020EE66EEF0EE66EC20EE66E59ECF0
:10B2F0005DF0E552E552E552E552E66A030EE66E70
:10B30000F70EE66EC30EE66E59EC5DF0E552E552BF
:10B31000E552E552E66A040EE66EF70EE66EC30EDF
:10B32000E66E59EC5DF0E552E552E552E552E66A0B
:10B33000050EE66EF70EE66EC30EE66E59EC5DF096
:10B34000E552E552E552E552E66A060EE66EF70E64
:10B35000E66EC30EE66E59EC5DF0E552E552E5523D
:10B36000E5520001EB691200120081B01FD000010C
:10B37000F1C000F0F2C001F0F3C002F0F4C003F03D
:10B38000F12B000EF223F323F423D880580E00543F
:10B390001B0E0154000E0254000E035416E2F16B12
:10B3A000F26BF36BF46B010EF06F000C0001F00513
:10B3B0000CE1F151F211F311F41102E1F06B010C07
:10B3C000F107000EF25BF35BF45B000CCEDF0108CB
:10B3D00001E1FF0000D01200D9CFE6FFE1CFD9FF95
:10B3E000020EE1260F0EC112580EDE6E020EDD6E49
:10B3F0009B8CDFCF00F0DF06010EDBCF01F001E216
:10B40000DB0600500110F5E10F01486949691CECA9
:10B4100050F00AD8020EE15C02E2E16AE552E16E08
:10B42000E552E7CFD9FF120081EC5FF0ECEC5FF062
:10B4300021EC5EF00001E76BE86BE96BEA6B120050
:10B44000D9CFE6FFE1CFD9FF030EE126FF0E0001C1
:10B45000EB5D01E1BBDF200E0E01005D01E28AD051
:10B460006550020B01E086D080EC62F0000901E13A
:10B4700081D0A4DD0001E751E81102E1000E08D0FF
:10B48000E7C0E9FFE8C0EAFFEF50800B01E0010EE2
:10B49000000970E100016451110A28E0010A19E075
:10B4A000110A0BE0010A53E1020EDB6A65C0DFFFFF
:10B4B000010E66C0DBFF819A17D0010EF36E020EFB
:10B4C000F3CFDBFF65C0DFFF010E66C0DBFF819AB3
:10B4D00018D0100EF36E020EF3CFDBFF65C0DFFF56
:10B4E000010E66C0DBFF818A81980CD0110EF36ECD
:10B4F000020EF3CFDBFF65C0DFFF010E66C0DBFF8E
:10B50000818A8188DBCFE6FFDFCFE6FFA4D8E55252
:10B51000E5520001200EA46F020EDBCFA5F0DFCFB5
:10B52000A6F0010EDBCFA7F0400EE66EA40EE66E8D
:10B53000000EE66E010EE66EE66E36EC57F0006E1B
:10B54000050EE15E0050F3CFE9F0F4CFEAF0400ED3
:10B55000E66E640EE66E000EE66EE66A010EE66EBC
:10B5600036EC57F0006E050EE15E0050F3CFE7F0C9
:10B57000F4CFE8F0030EE15C02E2E16AE552E16E2D
:10B58000E552E7CFD9FF12007AEF62F080EC62F06B
:10B590000009FCE080D8EDC0E6FFECC0E6FF47D82C
:10B5A000E552E552EFC0E6FFEEC0E6FF54D8E552A3
:10B5B000E552120012001200CCEF62F012001E0ED3
:10B5C000E66E010EE66E8DEC56F0E552E552400E49
:10B5D000E66E640EE66E000EE66EE66A010EE66E3C
:10B5E00036EC57F0006E050EE15E0050F3CFE7F049
:10B5F000F4CFE8F0120065840001080EE46F070E36
:10B60000E56FE407000EE55BE451E511FAE16594AE
:10B610001200550EA76EAA0EA76E0E01FF91120022
:10B62000550EA76EAA0EA76E0E01FF811200D9CF8C
:10B63000E6FFE1CFD9FFFE0EDBCFECF0FD0EDBCF56
:10B64000EDF0FE0EDB50CB6EFD0EDB50776EE5525B
:10B65000E7CFD9FF1200D9CFE6FFE1CFD9FFFE0E29
:10B66000DBCFEEF0FD0EDBCFEFF0FE0EDB50BB6E5E
:10B67000FD0EDB50B56EE552E7CFD9FF1200C9DFF2
:10B680000E010E0ECA6F120ECB6FCADF9392939407
:10B69000939A939812000F01010E526F060ECA6E14
:0AB6A000766E0C0EBA6EB46E120046
:06B6AA00D9CFE6FFE1CF5D
:10B6B000D9FF020EE126FD0EDBCF00F0DB06FE0E09
:10B6C000DBCF01F001E2DB060050011010E0DE6A82
:10B6D000DD6ADECF00F0DDCF01F0E30E005C0D0E81
:10B6E0000158E9E2DF2A010EF4E3DB2AF2D7020E69
:10B6F000E15C02E2E16AE552E16EE552E7CFD9FF93
:10B700001200D9CFE6FFE1CFD9FF060EE1268D92D8
:10B7100096928D9096908D8496948A9A939A8C9214
:10B72000DE6ADE6ADE6ADD6ADD52DD52D9CFE9FF0C
:10B73000DACFEAFF640EEE5C000EEE58000EEE5813
:10B74000000EEE580AE2D9CFE9FFDACFEAFFEE2A7F
:10B75000000EEE22EE22EE22E9D78C82DE6ADE6A4D
:10B76000DE6ADD6ADD52DD52D9CFE9FFDACFEAFFCA
:10B77000640EEE5C000EEE58000EEE58000EEE5811
:10B780000AE2D9CFE9FFDACFEAFFEE2A000EEE2275
:10B79000EE22EE22E9D7AE0EE66E70D8E552DB0E51
:10B7A000E66E6CD8E552230EE66E68D8E552D90EE7
:10B7B000E66E64D8E552220EE66E60D8E552A10E20
:10B7C000E66E5CD8E552C80EE66E58D8E552DA0E41
:10B7D000E66E54D8E552120EE66E50D8E552A80E29
:10B7E000E66E4CD8E5523F0EE66E48D8E552D50ECF
:10B7F000E66E44D8E552A00EE66E40D8E552810EC2
:10B80000E66E3CD8E552600EE66E38D8E552D30EAF
:10B81000E66E34D8E552E66A31D8E552A60EE66EF9
:10B820002DD8E552AD0EE66E29D8E5528B0EE66EA8
:10B8300025D8E552AF0EE66E21D8E5520A0EE66E27
:10B84000E66A33DFE552E552A40EE66E17D8E552FC
:10B85000400EE66E13D8E552020EE66E0FD8E552A2
:10B86000100EE66E0BD8E552060EE15C02E2E16ACC
:10B87000E552E16EE552E7CFD9FF1200D9CFE6FFDE
:10B88000E1CFD9FF956AFE0EDB508C6E8D808D82E4
:10B890008A9A8D948D928D828D849568E552E7CF3A
:10B8A000D9FF1200D9CFE6FFE1CFD9FF956AFE0E8E
:10B8B000DB508C6E8D808D828A8A8D948D928D82E4
:10B8C0008D849568E552E7CFD9FF1200D9CFE6FF06
:10B8D000E1CFD9FF020EE126B00EDF6EB80EDF5CBD
:10B8E00023E2DFCFE6FFCADFE552020EE66EC6DFD7
:10B8F000E552100EE66EC2DFE552010EDB6ADB5048
:10B90000006E016AD890015004E6840E005C000EBF
:10B91000015808E2FE0EDBCFE6FFC4DFE552010E60
:10B92000DB2AEDD7DF2ADAD7020EE15C02E2E16A18
:10B93000E552E16EE552E7CFD9FF1200D9CFE6FF1D
:10B94000E1CFD9FFE652200E006EFE0EDBCFE7FFFF
:10B950000050E75EFE0EE7CFDBFFFD0EDBCFE6FF1C
:10B960008DDFE552020E006EFC0EDBCFE7FF0050CC
:10B97000E726FC0EE7CFDBFFDB500F0BE66E7EDF2A
:10B98000E552FC0EDB380F0B0F0B100FE66E76DF67
:10B99000E552FE0EDBCFF6FFF76AF6BEF768050E3E
:10B9A000F702F3CFF7FFF602F3CFF6FFF450F726D6
:10B9B000140EF626C10EF7220800F550E66E72DF6F
:10B9C000E552FE0EDBCFF6FFF76AF6BEF768050E0E
:10B9D000F702F3CFF7FFF602F3CFF6FFF450F726A6
:10B9E000140EF626C10EF722010EF626000EF722DF
:10B9F0000800F550E66E56DFE552FE0EDBCFF6FF8F
:10BA0000F76AF6BEF768050EF702F3CFF7FFF60206
:10BA1000F3CFF6FFF450F726140EF626C10EF722E8
:10BA2000020EF626000EF7220800F550E66E3ADF09
:10BA3000E552FE0EDBCFF6FFF76AF6BEF768050E9D
:10BA4000F702F3CFF7FFF602F3CFF6FFF450F72635
:10BA5000140EF626C10EF722030EF626000EF7226C
:10BA60000800F550E66E1EDFE552FE0EDBCFF6FF56
:10BA7000F76AF6BEF768050EF702F3CFF7FFF60296
:10BA8000F3CFF6FFF450F726140EF626C10EF72278
:10BA9000040EF626000EF7220800F550E66E02DFCF
:10BAA000E552E66AFFDEE552E552E552E7CFD9FFFF
:10BAB0001200D9CFE6FFE1CFD9FFE652FB0EDB50F3
:10BAC000DF6EFC0EDB50B10FE76EFC0EE7CFDBFF45
:10BAD000FD0EDBCFF6FFFE0EDBCFF7FF0800F550C3
:10BAE0001AE0DFCFE6FFFC0EDBCFE6FFFD0EDBCF7B
:10BAF000F6FFFE0EDBCFF7FF0800F550E66E1EDF07
:10BB0000E552E552E552FD0EDB2AFE0E01E3DB2A8B
:10BB1000060EDF26DDD7E552E552E7CFD9FF12004A
:10BB2000D9CFE6FFE1CFD9FFE652FB0EDB50DF6E47
:10BB3000FC0EDB50B10FE76EFC0EE7CFDBFFFD0E16
:10BB4000DBCFE9FFFE0EDBCFEAFFEF5019E0DFCFDE
:10BB5000E6FFFC0EDBCFE6FFFD0EDBCFE9FFFE0EBE
:10BB6000DBCFEAFFEF50E66EE9DEE552E552E55243
:10BB7000FD0EDB2AFE0E01E3DB2A060EDF26DFD7F1
:10BB8000E552E552E7CFD9FF1200D9CFE6FFE1CF6A
:10BB9000D9FF050EE126030EDB6A040EDB6A020EF6
:10BBA000006EFA0EDBCFE7FF0050E726FA0EE7CF74
:10BBB000DBFFF90EDB50B00FDF6EFB0EDB50B00F7A
:10BBC000DF5C35E2DFCFE6FF59DEE552FA0EDB50EF
:10BBD0000F0BE66E53DEE552FA0EDB380F0B0F0B40
:10BBE0001009E66E4BDEE552010EDB6AFC0EDB50FF
:10BBF000F36E010EDBCFF4FFF350F45C16E2030E9C
:10BC0000DB2A040E01E3DB2AFD0EDBCFF6FFDB2A85
:10BC1000FE0EDBCFF7FF01E3DB2A0800F550E66EEE
:10BC200041DEE552010EDB2AE1D7DF2AC6D7050E39
:10BC3000E15C02E2E16AE552E16EE552E7CFD9FF4D
:02BC40001200F0
:0EBC4200D9CFE6FFE1CFD9FF030EE12659D896
:10BC5000736A820E726E739C94949396958C72881C
:10BC6000728A949EE66AD0D8E552E76E020EE7CF5C
:10BC7000DBFF0000D950020FE96EDACFEAFFEF5088
:10BC8000070B020801E00000140EE66EBDD8E55275
:10BC9000E76E020EE7CFDBFF020EDB96DB88020EBB
:10BCA000DB80DB92DB94020EDBCFE6FF140EE66E48
:10BCB0003AD8E552E552010EE66EA6D8E552DE6EA0
:10BCC000DD6A0000110EE66E9FD8E552DE6EDD6A79
:10BCD0000000E66A110EE66E26D8E552E552000035
:10BCE000110EE66E91D8E552DE6EDD6A0000030E9D
:10BCF000E15C02E2E16AE552E16EE552E7CFD9FF8D
:10BD00001200550EA76EAA0EA76E0E01FF91090E26
:10BD1000CC6F0A0ED36F170EFB6F550EA76EAA0ECF
:10BD2000A76EFF811200D9CFE6FFE1CFD9FFE6521F
:10BD3000DF6AFE0EDB50140804E0FE0EDB50340810
:10BD400006E1140EE66E60D8E552E00BDF6E8B9EC6
:10BD5000A49EFE0EDB50756EA4AEFED70000000060
:10BD600000000000000000000000000000000000D3
:10BD700000000000000000000000000000000000C3
:10BD800000000000000000000000000000000000B3
:10BD900000000000000000000000000000000000A3
:10BDA0000000000000000000000000000000000093
:10BDB0000000000000000000000000000000000083
:10BDC0000000000000000000000000000000000073
:10BDD000000000000000000000000000A49EFE0E15
:10BDE000DB500A0805E1FD0EDB507F0B756E04D0B9
:10BDF000FD0EDB50DF10756EA4AEFED78B8EE552C4
:10BE0000E552E7CFD9FF1200D9CFE6FFE1CFD9FF46
:10BE10008B9EA49EFE0EDB508009756EA4AEFED7ED
:10BE20000000000000000000000000000000000012
:10BE30000000000000000000000000000000000002
:10BE400000000000000000000000000000000000F2
:10BE500000000000000000000000000000000000E2
:10BE600000000000000000000000000000000000D2
:10BE700000000000000000000000000000000000C2
:10BE800000000000000000000000000000000000B2
:10BE900000000000000000000000000000000000A2
:10BEA000A49E756AA4AEFED78B8E755000D0E55265
:06BEB000E7CFD9FF1200EC
:0ABEB600030EB16EB392B390B39681
:10BEC000B288B28EB290B292A494B38E12002F0EAA
:10BED000926E0F01E00E486F1F0E496FC18EC19C1C
:10BEE000C70EC1140809C16EF80EC1140209C16E53
:10BEF000498FC29CC29EC30EC2140809C26EC28082
:10BF00001200D9DF67EF5FF0D9CFE6FFE1CFD9FFAD
:10BF1000020EE126FE0EDB500F0BF36EF346F346E6
:10BF2000C30EC214F310C26EFE0EDB50EA6A350F68
:10BF3000E96E0E0EEA22EF503F0BF36EF346F34626
:10BF4000030EB114F310B16EB38EB3820000000083
:10BF500000000000000000000000000000000000E1
:10BF600000000000000000000000000000000000D1
:10BF700000000000B392B28000000000000000004A
:10BF800000000000000000000000000000000000B1
:10BF900000000000000000000000000000000000A1
:10BFA000B2909E9CC2829EACFED7C3CFDEFFC4CFB0
:10BFB000DDFFDECF00F0DDCF01F000C0F3FF01C0F8
:10BFC000F4FF00D0020EE15C02E2E16AE552E16EAC
:10BFD000E552E7CFD9FF1200D9CFE6FFE1CFD9FF75
:10BFE000030EE126020EDB6A040EF36E020EDBCFB7
:10BFF000F4FFF350F45C01E383D0020EDB50EA6AF5
:10C00000350FE96E0E0EEA22EF6A020EDBCFE6FF75
:10C010007BDFE552F3CFDEFFF4CFDDFFDECF00F0B4
:10C02000DDCF01F0200E005C030E01582EE2020E5F
:10C03000DB50EA6A350FE96E0E0EEA22EF501F0858
:10C0400009E1020EDB50EA6A350FE96E0E0EEA22B4
:10C05000EF6A53D0020EDB50EA6A350FE96E0E0E1E
:10C06000EA22EF2A020EDBCFE6FF4EDFE552F3CFE6
:10C07000DEFFF4CFDDFFDECF00F0DDCF01F0200EDC
:10C08000005C030E0158D3E338D0D9CFE9FFDACFF3
:10C09000EAFF200ED880EE54030EED542EE2020E7D
:10C0A000DB50EA6A350FE96E0E0EEA22EF50E10826
:10C0B00009E1020EDB50EA6A350FE96E0E0EEA2244
:10C0C000EF6A1BD0020EDB50EA6A350FE96E0E0EE6
:10C0D000EA22EF06020EDBCFE6FF16DFE552F3CFD2
:10C0E000DEFFF4CFDDFFD9CFE9FFDACFEAFF200E84
:10C0F000D880EE54030EED54D2E3020EDB2A74D73F
:10C10000030EE15C02E2E16AE552E16EE552E7CF3F
:04C11000D9FF120041
:0CC11400000000000000004F00000007C9
:10C12000000700147F147F14242A7F2A1223130887
:10C13000646236495522500005030000001C22416C
:10C14000000041221C0014083E081408083E08089C
:10C150000050300000080808080800606000002057
:10C16000100804023E5149453E00427F40004261B2
:10C170005149462141454B311814127F102745453E
:10C1800045393C4A49493001710905033649494955
:10C1900036064949291E0036360000005636000092
:10C1A000081422410014141414140041221408022B
:10C1B00001510906324979413E7E1111117E7F49B4
:10C1C0004949363E414141227F4141221C7F494934
:10C1D00049417F090909013E4149497A7F08080818
:10C1E0007F00417F41002040413F017F08142241F0
:10C1F0007F404040407F020C027F7F0408107F3E5A
:10C200004141413E7F090909063E4151215E7F09B6
:10C21000192946464949493101017F01013F404002
:10C22000403F1F2040201F3F4038403F6314081408
:10C230006307087008076151494543007F41410089
:10C2400002040810200041417F0004020102044062
:10C2500040404040000102040020545454787F487C
:10C260004444383844444420384444487F38545483
:10C270005418087E0901020C5252523E7F080404F1
:10C280007800447D40002040443D007F1028440059
:10C2900000417F40007C041804787C08040478384E
:10C2A000444444387C14141408081414187C7C0882
:10C2B0000404084854545420043F4440203C404067
:10C2C000207C1C2040201C3C4030403C442810284E
:10C2D000440C5050503C4464544C440008364100D7
:0FC2E00000007F00000041360800020102040246
:01C2EF00202E
:10C2F0002064656D6F206D656E752E2020202020D6
:10C3000020202020002020746F2072657475726ECA
:10C3100020746F2074686520202000486F6C6420B2
:10C32000746865206D656E7520627574746F6E201B
:10C33000002020616E6420706F74656E74696F6D8B
:10C34000657465722E20002020706164732C20615A
:10C350006363656C65726F6D65746572002020663D
:10C36000726F6D20746865206361706163697469C0
:10C37000766500202072656164696E67207261775E
:10C38000206461746120202000546865205043209F
:10C390006170706C69636174696F6E2069730020ED
:10C3A0002048494420506E502044656D6F2E6578BA
:10C3B00065202020002020616E642072756E20743C
:10C3C000686520202020202020200020207468651F
:10C3D00020686F737420636F6D70757465722020B0
:10C3E00000436F6E6E6563742074686520626F61D0
:10C3F000726420746F200020202020202020202024
:10C400002020202020202020202020200020206408
:10C4100065766963652E20202020202020202020A2
:10C420002020002020612055534220637573746FD3
:10C430006D20484944202020002020626F617264F2
:10C440002077696C6C20616374206C696B650049AE
:10C450006E20746869732064656D6F2C2074686544
:10C4600020202020005072657373204D656E75206A
:10C47000746F2070726F636565640048494420439F
:10C480007573746F6D2044656D6F2076312E30208A
:10C4900000205049433138462053746172746572EC
:07C4A000204B69742020000D
:01C4A7000094
:08C4A8000E013CB122D03C83DF
:10C4B0008B809490550EA76EAA0EA76E0E01FF9169
:10C4C0000E0ED16F550EA76EAA0EA76EFF810F0E2E
:10C4D000BA6ECF0EBA140009BA6EBB6A0F01526B66
:10C4E000800ECB6E040ECA6EA496600E776E7F0E21
:10C4F000766E12000E013C913C938B80949012005A
:10C500000E013CA109D08B50010B04E19450010BAA
:10C5100001E1010C3C91C8DF0E013CA3C5DFA4A6DC
:10C520003AD0A496BA50300BE842E842E842E842DA
:10C53000030819E1400EBB5C10E18B909490BA6A3D
:10C54000CA6A0E01D16B0F01526BCB68766A7768AD
:10C55000A4960E013C813C93010CBB2ACF0EBA1469
:10C560000009BA6E000CBA0EE96E0F0EEA6EEF50BB
:10C57000300BE842E842E842E842E82AE850030B80
:10C58000F36EF46EF346F346F346F346CF0EEF1424
:08C59000F310EF6EF450000CF3
:08C59800040120511F0B0108F2
:10C5A00001E01200245101E01200060E215D21E19C
:10C5B0002351230A1BE0010A0CE0030A1AE10E01D1
:10C5C000010517E10E01960E116FC60E126F090ECE
:10C5D00009D00E0101050DE10E01130E116FC70EFA
:10C5E000126F1D0E146F156BC00E02D00E01800E5F
:10C5F000136F04012051600BE842E842E842E84230
:10C60000E842010801E0120021510B0A2AE0080A61
:10C610001DE0090A15E0080A09E00B0A05E0080A0E
:10C6200001E0120037EF63F038EF63F00E01390ECE
:10C63000116F0E0E126F010E146F156BC10E0FD01D
:10C640000E01800E136F23C439FE12000E013A0E44
:10C65000116F0E0E126F010E146F156B810E136F9A
:10C6600012000E01800E136F22C43AFE1200120057
:02C670001200B6
:0EC672001201000200000008D8045E00020061
:10C680000102000109022900010100C0960904000D
:10C69000000203000000092111010001221D000712
:10C6A000058103400001070501034000010403095F
:10C6B0000434034D006900630072006F006300687A
:10C6C0000069007000200054006500630068006E7F
:10C6D000006F006C006F0067007900200049006E59
:10C6E0000063002E002E03530069006D0070006C83
:10C6F0000065002000480049004400200044006517
:10C700000076006900630065002000440065006D4C
:10C71000006F000600FF0901A10119012940150061
:10C7200026FF00750895408102190129409102C039
:08C7300084C6ADC6B1C6E5C622
:08C738001E0EF66EA00EF76E56
:10C74000000EF86E0E010900F5502A6F0900F55031
:10C750002B6F03E12A6701D03DD00900F550256F0A
:10C760000900F550266F0900F550276F09000900F0
:10C77000F550E96E0900F550EA6E0900090009005C
:10C78000F550286F0900F550296F09000900F6CF10
:10C790002CFEF7CF2DFEF8CF2EFE25CEF6FF26CEAF
:10C7A000F7FF27CEF8FF0E01285302E1295307E0D7
:10C7B0000900F550EE6E2807F8E22907F9D72CCECC
:10C7C000F6FF2DCEF7FF2ECEF8FF0E012A07000E42
:06C7D0002B5BBFD7120035
:0AC7D600FE0EE3CFE9FFFF0EE3CFF4
:10C7E000EAFFE9CFF3FFEACFF4FFFB0EE35003E1EA
:10C7F000FC0EE35009E0FB0EE30602E2FC0EE3064A
:0AC80000FD0EE350EE6EF1D71200BA
:06C80A00C00EF36E00EE0B
:10C8100000F00E0E01D81200EA6002D0EE6AFCD7DA
:0AC82000F350E9601200EE6AFCD745
:06C82A001DEE00F02DEEF2
:10C8300000F0F86A059C9CEC63F003EC50F0D8EC37
:06C8400057F0FBD71200C7
:0AC84600000000000000FFFF0000EA
:05C850000000000000E3
:01FFF800AA5E
:01FFF900F710
:01FFFA001FE7
:01FFFB00FF06
:01FFFC0063A1
:01FFFD00F80B
:01FFFE008181
:01FFFF00F110
:00000001FF
